:1000000004C1000021C100001FC100001DC100008B
:100010001BC1000019C1000017C1000015C100007C
:1000200013C1000011C100000FC100000DC100008C
:100030000BC1000009C1000065C3000090C30000AF
:10004000BBC30000E6C3000011C400003CC40000B4
:1000500067C4000092C40000BDC40000E8C40000F2
:10006000F3C00000F1C00000EFC00000EDC00000D0
:10007000EBC00000E9C00000E7C00000E5C00000E0
:10008000E3C00000E1C00000DFC00000DDC00000F0
:10009000DBC00000D9C00000D7C00000D5C0000000
:1000A000D3C00000D1C00000CFC00000CDC0000010
:1000B000CBC00000C9C00000C7C000007AC6000065
:1000C000A5C60000D0C60000FBC6000026C7000081
:1000D00051C70000B9C00000B7C00000B5C00000A3
:1000E000B3C00000B1C00000AFC00000ADC0000050
:1000F000ABC00000A9C00000A7C00000A5C0000060
:10010000A3C00000A1C000009FC000009DC000006F
:100110009BC0000099C0000097C0000095C000007F
:1001200093C0000091C000008FC000008DC000008F
:100130008BC00000A9C40000D4C40000FFC40000AC
:100140002AC5000055C5000080C500000C94AA0E09
:10015000A9C50000D4C50000FFC5000075C000009F
:100160000C94670E71C000006FC000006DC00000ED
:100170006BC0000069C0000067C0000065C00000DF
:1001800063C0000061C000005FC000005DC00000EF
:100190005BC0000059C0000057C0000055C00000FF
:1001A00053C0000051C000004FC000004DC000000F
:1001B0004BC0000049C0000047C0000045C000001F
:1001C00043C0000041C000003FC000003DC000002F
:1001D0003BC0000039C0000037C0000035C000003F
:1001E00033C0000031C000002FC000002DC000004F
:1001F0002BC0000029C0000027C000000803260310
:1002000021031C03170312030D0311241FBECFEF9C
:10021000CDBFDFE2DEBF10E2A0E0B0E2EAE0FFE146
:1002200000E00BBF02C007900D92A830B107D9F7CC
:1002300020E2A8E0B0E201C01D92A43CB207E1F7C1
:100240000E94140D0C94830FDBCE50E0FA01E058AD
:10025000FE4F811526E0920721F4262F206520838A
:100260000EC0803226E0920719F468656083089515
:10027000803426E0920719F4606660830895803622
:10028000964011F4686660830895FC0180E096E072
:1002900080839183128282E090E08383948315822D
:1002A00016821186128680E098E08387948780E426
:1002B00098E0818B928B178682E0808B48EE53E02A
:1002C00060E070E0438B548B658B768B84E090E02C
:1002D0008587968708950F931F93FC016083718330
:1002E00042830383148325831F910F910895FC019A
:1002F00062870895FC01638774870895FC01658710
:10030000768708952F923F924F925F926F927F92DD
:100310008F929F92AF92BF92CF92DF92EF92FF9215
:100320000F931F93CF93DF93EC01E881F98183E072
:1003300090E09C010A8002C0220F331F0A94E2F76A
:1003400022830A8002C0880F991F0A94E2F78093E3
:10035000B000E881F9818089887F9D81992311F01F
:1003600090E401C090E0892B808B8E81882301F17D
:10037000E881F98184E090E09C010A8002C0220FAC
:10038000331F0A94E2F722830A8002C0880F991F64
:100390000A94E2F78093B000E881F9818089887F30
:1003A0009F81992311F090E401C090E0892B808B0C
:1003B00062E080E00E947E0A4A856A818881998194
:1003C00044DF8A84912C38E7831A3EEF930A4B80EE
:1003D0005C8089EE481683E05806B8F092013695A5
:1003E00027953695279536952795A5ECB0E20E947E
:1003F000F40E9C01329522952F7023273F702327FE
:10040000A0E0BDE70E94F40E18C0612C712C440CD2
:10041000551C661C771C440C551C661C771C440C30
:10042000551C661C771C440C551C661C771CC301AC
:10043000B201660F771F881F991F2B013C0168309E
:1004400071058105910538F00F2EF7E04F2E512CE4
:10045000612C712CF02D842D8860F40180838E81B5
:10046000882399F020818885F0E28F9FC0011124B4
:10047000822B8061F40180834A854F5F6A816E5FC1
:1004800088819981E2DEF40141828B859C859FD52C
:100490009A85985FEB85FC85838180718383838156
:1004A0008066892B8383EB85FC8510A211A28D8544
:1004B0009E850197EB85FC8586A397A3EB85FC853C
:1004C0008081807F816080838F85882309F407C1C4
:1004D000E889F0E0E857FE4FAA85B0E0A857BE4F84
:1004E0008C918770808348896A8188819981ADDE8B
:1004F00089899A896CD59889985FE989FA89838175
:10050000807183838381806A892B8383E989FA8957
:1005100010A211A2E989FA898FEF9FEF86A397A312
:10052000E989FA89E6FD04C081818061818303C085
:100530008181806181836B897C898D899E8928EE88
:1005400033E040E050E00E94CC0E4D845E84612C8C
:10055000712CCA01B901A30192010E94CC0EE98954
:10056000FA8923318AE738074105510528F480814B
:10057000807F876080833EC0293488EE380781E021
:100580004807510528F48081807F8660808332C0CF
:10059000213281EA380787E04807510528F4808135
:1005A000807F8560808326C0213089E038078DE315
:1005B0004807510528F48081807F846080831AC0B9
:1005C000213082E138078AE74807510528F4808105
:1005D000807F836080830EC021303442444F5105B8
:1005E00028F48081807F8260808304C08081807F46
:1005F00081608083E989FA8980818F7090E0FC01B5
:100600003197E730F10538F5E250FF4F0C94EE0ECC
:1006100080E098E4A8EEB1E021C082E19AE7A0E092
:10062000B0E01CC088E498EEA1E0B0E017C080E222
:1006300091EAA7E0B0E012C080E099E0ADE3B0E05D
:100640000DC080E092E1AAE7B0E008C080E094E24B
:10065000A4EFB0E003C080E090E0DC011C012D01BC
:10066000282F332D442D552D60E070E080E090E080
:1006700006E00E94610FA22CB32CC42CD52CE12CD7
:10068000F12C00E010E00E947A0F01E00E94610F5F
:1006900000E00E947A0F03E00E94610FCB88DC88A3
:1006A000ED88FE8816012701AC2CB32CC42CD52C68
:1006B000E12CF12C00E00E94050F02E00E94610F86
:1006C0002D843E84A22CB32CC12CD12C00E00E949E
:1006D000050F2F8B388F498F5A8F1B8E1C8EDF9101
:1006E000CF911F910F91FF90EF90DF90CF90BF902F
:1006F000AF909F908F907F906F905F904F903F90C2
:100700002F9008951F920F920FB60F9211240BB6DF
:100710000F922F933F934F935F936F937F938F939A
:100720009F93AF93BF93EF93FF93E0913820F091A5
:100730003920309709F00995FF91EF91BF91AF9162
:100740009F918F917F916F915F914F913F912F91E9
:100750000F900BBE0F900FBE0F901F9018951F9219
:100760000F920FB60F9211240BB60F922F933F9357
:100770004F935F936F937F938F939F93AF93BF93A9
:10078000EF93FF93E0913620F0913720309709F0F6
:100790000995FF91EF91BF91AF919F918F917F91BB
:1007A0006F915F914F913F912F910F900BBE0F90E2
:1007B0000FBE0F901F9018951F920F920FB60F92B9
:1007C00011240BB60F922F933F934F935F936F9328
:1007D0007F938F939F93AF93BF93EF93FF93E0919A
:1007E0003420F0913520309709F00995FF91EF9171
:1007F000BF91AF919F918F917F916F915F914F9139
:100800003F912F910F900BBE0F900FBE0F901F9036
:1008100018951F920F920FB60F9211240BB60F92DC
:100820002F933F934F935F936F937F938F939F93F8
:10083000AF93BF93EF93FF93E0913220F091332079
:10084000309709F00995FF91EF91BF91AF919F917A
:100850008F917F916F915F914F913F912F910F9069
:100860000BBE0F900FBE0F901F9018951F920F9206
:100870000FB60F9211240BB60F922F933F934F9305
:100880005F936F937F938F939F93AF93BF93EF93F8
:10089000FF93E0913020F0913120309709F00995D5
:1008A000FF91EF91BF91AF919F918F917F916F9148
:1008B0005F914F913F912F910F900BBE0F900FBE04
:1008C0000F901F9018951F920F920FB60F92112440
:1008D0000BB60F922F933F934F935F936F937F933A
:1008E0008F939F93AF93BF93EF93FF93E0912E204D
:1008F000F0912F20309709F00995FF91EF91BF916A
:10090000AF919F918F917F916F915F914F913F91A7
:100910002F910F900BBE0F900FBE0F901F90189548
:100920001F920F920FB60F9211240BB60F922F93B6
:100930003F934F935F936F937F938F939F93AF9367
:10094000BF93EF93FF93E0912C20F0912D203097EF
:1009500009F00995FF91EF91BF91AF919F918F9110
:100960007F916F915F914F913F912F910F900BBEAF
:100970000F900FBE0F901F9018951F920F920FB6F9
:100980000F9211240BB60F922F933F934F935F93C7
:100990006F937F938F939F93AF93BF93EF93FF9347
:1009A000E0912A20F0912B20309709F00995FF91D2
:1009B000EF91BF91AF919F918F917F916F915F91D7
:1009C0004F913F912F910F900BBE0F900FBE0F9044
:1009D0001F9018951F920F920FB60F9211240BB60D
:1009E0000F922F933F934F935F936F937F938F93C8
:1009F0009F93AF93BF93EF93FF93E0912820F091E3
:100A00002920309709F00995FF91EF91BF91AF919F
:100A10009F918F917F916F915F914F913F912F9116
:100A20000F900BBE0F900FBE0F901F9018951F9246
:100A30000F920FB60F9211240BB60F922F933F9384
:100A40004F935F936F937F938F939F93AF93BF93D6
:100A5000EF93FF93E0912620F0912720309709F043
:100A60000995FF91EF91BF91AF919F918F917F91E8
:100A70006F915F914F913F912F910F900BBE0F900F
:100A80000FBE0F901F9018951F920F920FB60F92E6
:100A900011240BB60F922F933F934F935F936F9355
:100AA0007F938F939F93AF93BF93EF93FF93E091C7
:100AB0002420F0912520309709F00995FF91EF91BE
:100AC000BF91AF919F918F917F916F915F914F9166
:100AD0003F912F910F900BBE0F900FBE0F901F9064
:100AE00018951F920F920FB60F9211240BB60F920A
:100AF0002F933F934F935F936F937F938F939F9326
:100B0000AF93BF93EF93FF93E0912220F0912320C6
:100B1000309709F00995FF91EF91BF91AF919F91A7
:100B20008F917F916F915F914F913F912F910F9096
:100B30000BBE0F900FBE0F901F9018951F920F9233
:100B40000FB60F9211240BB60F922F933F934F9332
:100B50005F936F937F938F939F93AF93BF93EF9325
:100B6000FF93E0912020F0912120309709F0099522
:100B7000FF91EF91BF91AF919F918F917F916F9175
:100B80005F914F913F912F910F900BBE0F900FBE31
:100B90000F901F9018951F920F920FB60F9211246D
:100BA0000BB60F922F933F934F935F936F937F9367
:100BB0008F939F93AF93BF93EF93FF93E0911E208A
:100BC000F0911F20309709F00995FF91EF91BF91A7
:100BD000AF919F918F917F916F915F914F913F91D5
:100BE0002F910F900BBE0F900FBE0F901F90189576
:100BF0001F920F920FB60F9211240BB60F922F93E4
:100C00003F934F935F936F937F938F939F93AF9394
:100C1000BF93EF93FF93E0911C20F0911D2030973C
:100C200009F00995FF91EF91BF91AF919F918F913D
:100C30007F916F915F914F913F912F910F900BBEDC
:100C40000F900FBE0F901F9018951F920F920FB626
:100C50000F9211240BB60F922F933F934F935F93F4
:100C60006F937F938F939F93AF93BF93EF93FF9374
:100C7000E0911A20F0911B20309709F00995FF911F
:100C8000EF91BF91AF919F918F917F916F915F9104
:100C90004F913F912F910F900BBE0F900FBE0F9071
:100CA0001F9018951F920F920FB60F9211240BB63A
:100CB0000F922F933F934F935F936F937F938F93F5
:100CC0009F93AF93BF93EF93FF93E0911820F09120
:100CD0001920309709F00995FF91EF91BF91AF91DD
:100CE0009F918F917F916F915F914F913F912F9144
:100CF0000F900BBE0F900FBE0F901F9018951F9274
:100D00000F920FB60F9211240BB60F922F933F93B1
:100D10004F935F936F937F938F939F93AF93BF9303
:100D2000EF93FF93E0911620F0911720309709F090
:100D30000995FF91EF91BF91AF919F918F917F9115
:100D40006F915F914F913F912F910F900BBE0F903C
:100D50000FBE0F901F9018951F920F920FB60F9213
:100D600011240BB60F922F933F934F935F936F9382
:100D70007F938F939F93AF93BF93EF93FF93E091F4
:100D80001420F0911520309709F00995FF91EF910B
:100D9000BF91AF919F918F917F916F915F914F9193
:100DA0003F912F910F900BBE0F900FBE0F901F9091
:100DB00018951F920F920FB60F9211240BB60F9237
:100DC0002F933F934F935F936F937F938F939F9353
:100DD000AF93BF93EF93FF93E0911220F091132014
:100DE000309709F00995FF91EF91BF91AF919F91D5
:100DF0008F917F916F915F914F913F912F910F90C4
:100E00000BBE0F900FBE0F901F9018951F920F9260
:100E10000FB60F9211240BB60F922F933F934F935F
:100E20005F936F937F938F939F93AF93BF93EF9352
:100E3000FF93E0911020F0911120309709F009956F
:100E4000FF91EF91BF91AF919F918F917F916F91A2
:100E50005F914F913F912F910F900BBE0F900FBE5E
:100E60000F901F9018951F920F920FB60F9211249A
:100E70000BB60F922F933F934F935F936F937F9394
:100E80008F939F93AF93BF93EF93FF93E0910E20C7
:100E9000F0910F20309709F00995FF91EF91BF91E4
:100EA000AF919F918F917F916F915F914F913F9102
:100EB0002F910F900BBE0F900FBE0F901F901895A3
:100EC0001F920F920FB60F9211240BB60F922F9311
:100ED0003F934F935F936F937F938F939F93AF93C2
:100EE000BF93EF93FF93E0910C20F0910D2030978A
:100EF00009F00995FF91EF91BF91AF919F918F916B
:100F00007F916F915F914F913F912F910F900BBE09
:100F10000F900FBE0F901F9018951F920F920FB653
:100F20000F9211240BB60F922F933F934F935F9321
:100F30006F937F938F939F93AF93BF93EF93FF93A1
:100F4000E0910A20F0910B20309709F00995FF916C
:100F5000EF91BF91AF919F918F917F916F915F9131
:100F60004F913F912F910F900BBE0F900FBE0F909E
:100F70001F9018951F920F920FB60F9211240BB667
:100F80000F922F933F934F935F936F937F938F9322
:100F90009F93AF93BF93EF93FF93E0910820F0915D
:100FA0000920309709F00995FF91EF91BF91AF911A
:100FB0009F918F917F916F915F914F913F912F9171
:100FC0000F900BBE0F900FBE0F901F901895CF93F0
:100FD000CFB7F894282F392F211588E0380739F436
:100FE00061E083E08BD264E083E088D22DC02034BE
:100FF00088E0380739F462E083E080D264E083E07F
:101000007DD222C0211589E0380739F461E084E0FF
:1010100075D264E084E072D217C0203489E03807CA
:1010200039F462E084E06AD264E084E067D20CC004
:1010300021153A4039F461E085E060D264E085E052
:101040005DD202C0CFBF09C08FB7F894EEE3F0E2E3
:1010500090819F5F90838FBFCFBFCF910895FC0198
:10106000818185FFFDCF608380E090E00895FC01E1
:1010700081818823ECF7808108954F925F926F926F
:101080007F928F929F92AF92BF92CF92DF92EF9218
:10109000FF920F931F93CF93DF93EC014A015B0103
:1010A00028013901D901C801689412F8B695A795AD
:1010B000979587951694D1F7B901A801032E36E1CB
:1010C00076956795579547953A95D1F7302D2C81B0
:1010D00022FD08C0B695A795979587957695679553
:1010E0005795479588159905AA05BB0508F4A2C030
:1010F00084169506A606B70608F49EC08C8182FD6C
:1011000004C0880C991CAA1CBB1CC301B201A50118
:10111000940142D62F3F31054105510508F48EC098
:10112000C12CD12C7601CA9419EF05C02C153D05B0
:101130004E055F0568F0CC0CDD1CEE1CFF1C1D3F4E
:1011400014F46894C0F81F5F173081F7212F4EC048
:10115000212F11230CF04AC0D501C401880F991F1B
:10116000AA1FBB1F880F991FAA1FBB1F880F991F9B
:10117000AA1FBB1F481A590A6A0A7B0A1E3FECF4D1
:101180006DEF7FEF611B710917FD739504C0440C6F
:10119000551C661C771C6A95D2F7D501C401B6951B
:1011A000A79597958795BC01CD01640D751D861D8A
:1011B000971DA5019401F0D534C023E0210FD5017E
:1011C000C40104C0880F991FAA1FBB1F2A95D2F71C
:1011D0009C01AD01B695A79597958795BC01CD016A
:1011E000640D751D861D971DD7D51BC02D5FD501BC
:1011F000C40104C0880F991FAA1FBB1F2A95D2F7EC
:101200009C01AD01B695A79597958795BC01CD0139
:10121000640D751D861D971DBFD5215031094109EB
:101220005109832F8F701295107F182B1F832E83E7
:1012300081E018C080E016C080E014C0D501C40170
:10124000880F991FAA1FBB1F880F991FAA1FBB1FBA
:10125000880F991FAA1FBB1F481A590A6A0A7B0ADE
:1012600019EF8ECFDF91CF911F910F91FF90EF90EB
:10127000DF90CF90BF90AF909F908F907F906F90B6
:101280005F904F9008950F931F93CF93DF93EC01DE
:101290008B01009709F4BEC0803C910521F460E108
:1012A00080E02CD1B7C0C11584E0D80721F464E0F8
:1012B00080E024D1AFC0C038E1E0DE0721F462E075
:1012C00080E01CD1A7C0C115F1E0DF0721F461E087
:1012D00080E014D19FC0C03883E0D80721F461E0DA
:1012E00081E00CD197C0C115E2E0DE0721F462E095
:1012F00081E004D18FC0C032F3E0DF0721F464E065
:1013000082E0FCD087C0C11588E0D80721F461E0F5
:1013100083E0F4D07FC0C115E9E0DE0721F461E08D
:1013200084E0ECD077C0C115FAE0DF0721F461E07A
:1013300085E0E4D06FC0C03488E0D80721F462E0D3
:1013400083E0DCD067C0C034E9E0DE0721F462E06E
:1013500084E0D4D05FC0C039F8E0DF0721F464E056
:1013600083E0CCD057C0C03989E0D80721F464E0CD
:1013700084E0C4D04FC0C039EAE0DE0721F464E065
:1013800085E0BCD047C0C03CF8E0DF0721F468E04E
:1013900083E0B4D03FC0C03C89E0D80721F468E0C6
:1013A00084E0ACD037C0C03AE8E0DE0721F460E169
:1013B00083E0A4D02FC0C03AF9E0DF0721F460E158
:1013C00084E09CD027C0C03A8AE0D80721F460E1CD
:1013D00085E094D01FC0C03BE8E0DE0721F460E266
:1013E00083E08CD017C0C03BF9E0DF0721F460E256
:1013F00084E084D00FC0C03884E0D80721F460E4D2
:1014000083E07CD007C0C03AE4E0DE0719F460E472
:1014100085E074D08D818F738D83F80194818581EF
:10142000892B9681992311F098E001C090E0892BD7
:101430008D83F801408151816281738100E018E45D
:1014400028EE31E0CE0119DE9C8198609C839C815E
:1014500090619C83DF91CF911F910F910895CF935D
:10146000DF93FC01709620E030E0C62FD0E0DE0173
:10147000022E02C0B595A7950A94E2F7A0FD50830D
:101480002F5F3F4F31962830310589F740FF0AC062
:1014900041FF03C0FC01658302C0FC016683FC01BF
:1014A000618302C0FC016283DF91CF9108958FEFC9
:1014B000809370008093710080937200809373001A
:1014C0008093740080937500809376008FB7F894B2
:1014D000E0E5F0E09081926090838FBF818181FF91
:1014E000FDCF61E080E490E015D08FB7F894E0E59F
:1014F000F0E090819E7F90838FBF08959FB7F8940E
:10150000E82FF0E0E059FF4F609580816823608309
:101510009FBF08951BBEFC0128ED24BF6083089582
:1015200043E050E068E080E696E099DF40E050E07C
:1015300064E080E696E093DF43E050E060E180E421
:1015400096E08DDF43E050E060E280E496E087DFE4
:1015500040E050E060E480E496E081DF43E050E06A
:1015600060E880E496E07BDF41E050E061E080E805
:1015700096E075DF41E050E064E080E896E06FCFF0
:101580000895CF92DF92EF92FF92CF93DF93EC0119
:101590006B01E12CF12C60E078E488EE91E0A7018A
:1015A0009601FAD3CA01B9012FEF3FEF40E050E0B6
:1015B000F3D32115310529F481E08C8321E030E05B
:1015C0002DC02230310528F482E08C8322E030E007
:1015D00025C02430310528F483E08C8324E030E0FA
:1015E0001DC02830310528F484E08C8328E030E0E9
:1015F00015C02034310528F485E08C8320E430E0E8
:101600000DC02F3F310509F028F486E08C8320E0DF
:1016100031E004C087E08C8320E034E040E050E01B
:1016200060E078E488EE91E0B7D3CA01B901A70180
:101630009601B2D32D833E832436310518F41C82E3
:101640001D821E82DF91CF91FF90EF90DF90CF90AF
:1016500008950F931F93CF93DF93EC0189016230BC
:10166000B9F128F4662351F06130E9F06FC06330BE
:1016700009F443C0643009F455C068C080E098E0C4
:1016800088839983E0E4F6E0508121E030E08FEF39
:10169000840FB90102C0660F771F8A95E2F7CB016C
:1016A000852B808353C080E498E088839983E0E4AD
:1016B000F6E0508121E030E083E0840FB90102C000
:1016C000660F771F8A95E2F7CB01852B80833EC09A
:1016D00080E099E088839983E0E6F6E0508121E09C
:1016E00030E08FEF840FB90102C0660F771F8A9533
:1016F000E2F7CB01852B808329C080E499E08883C1
:101700009983E0E6F6E0508121E030E083E0840F49
:10171000B90102C0660F771F8A95E2F7CB01852BCE
:10172000808314C080E09AE088839983E0E8F6E043
:10173000508121E030E08FEF840FB90102C0660FC5
:10174000771F8A95E2F7CB01852B80834A8342304D
:1017500061F018F4413031F010C0433049F04430AA
:1017600051F00BC080E18B8308C080E28B8305C001
:1017700080E48B8302C080E88B838881998127DC99
:10178000E881F9818181887F836081831D821E8247
:101790001C82E881F9818081807F8083B801CE013D
:1017A000F0DEDF91CF911F910F910895CF93DF93DA
:1017B000EC01AD81BE81262F30E016D324E630E067
:1017C00040E050E0E9D28A81E881F981E6FD17C066
:1017D000823061F018F4813031F01BC0833049F061
:1017E000843051F016C020AF31AF13C022AF33AFF9
:1017F00010C024AF35AF0DC026AF37AF0AC081305F
:1018000019F0823021F005C020AF31AF02C022AF05
:1018100033AF8D819E81E881F98186A397A38B8167
:10182000E881F981E6FD04C09181892B818304C0A0
:1018300091818073892B8183E881F9818081807F08
:101840009C81892B8083DF91CF9108958EE490E273
:101850008093B2209093B3208093482090934920A6
:1018600082EB90E280934C2090934D2010924A207E
:1018700010924B201092B5200895E0914820F091ED
:1018800049202091B2203091B320E217F30721F4D0
:1018900090914A2091112AC09F012F5F3F4F2093C2
:1018A000482030934920808320914820309149205E
:1018B00080914C2090914D202817390730F08EE40C
:1018C00090E28093482090934920209148203091C5
:1018D00049208091B2209091B3202817390749F40C
:1018E00081E080934A2081E090E0089580E090E0DC
:1018F000089581E090E00895E091B220F091B32046
:1019000020914820309149202E173F0721F4209143
:101910004A20222301F19F012F5F3F4F2093B220E5
:101920003093B3202081FC0120832091B22030919C
:10193000B32080914C2090914D202817390730F02A
:101940008EE490E28093B2209093B32010924A20CC
:1019500081E090E0089580E090E00895EEE4F0E208
:1019600084E6DF011D928A95E9F7E093B220F093B7
:10197000B320E0934820F093492010924A2010921F
:101980004B201092B5200895CF93DF9300D000D064
:10199000CDB7DEB7CE010196AFDFCE010296ACDF48
:1019A000CE010396A9DFCE010496A6DF89818823A4
:1019B000FCF41092462086FF05C091E0E0E8F6E0D6
:1019C000958304C091E0E0E8F6E096839A819093D5
:1019D000452085FF05C084E0E0E8F6E0868304C08A
:1019E00084E0E0E8F6E085838B818093B42016C024
:1019F00084FF04C081E08093432010C086FF06C0AE
:101A000091E0909346209A819093472085FF06C0ED
:101A100081E0809346208B81809344202496CDBF23
:101A2000DEBFDF91CF910895CF93DF93CDB7DEB7BF
:101A3000EA97CDBFDEBF3BDD73DDCE014E960E943F
:101A4000450102E310E020E040E060E276E0CE01F4
:101A50004E960E946B0160EC70E0CE014E960E94A3
:101A60007E01CE014E960E948201CE0101960E9417
:101A7000450120E040E060E476E0CE0101960E945E
:101A80006B0160EC70E0CE0101960E947E0162E085
:101A9000CE0101960E94770160E079E0CE010196C7
:101AA0000E947A01CE0101960E94820160E184E0E9
:101AB00025DD60E070E280EA99E0E5DBC7DE62E008
:101AC00084E01CDD87E0E0EAF0E08283E0EAF9E010
:101AD000838180638383E0E0F8E08681836086838E
:101AE00087818C608783E0E4F9E080818260808375
:101AF0008681836086838FEF90E086A397A3789496
:101B000020E533EC42E064E08DEB90E2A2DD20E5DD
:101B100033EC44E064E086EB90E29BDD81E0E0E8BA
:101B2000F6E085831092B420109245201092472051
:101B300010924420109243206894EE24E5F8FF248C
:101B4000F3F800E219E00F2EF2E3BF2EF02D0F2E76
:101B5000F0E8CF2EF6E0DF2EF02D992493946894D0
:101B6000AA24A2F86091B4208DEB90E21FDE609170
:101B7000452086EB90E21ADE8091B520882331F073
:101B800003DF8091B52081508093B5208091432060
:101B9000882379F0F7016081718180EA99E05FDA4A
:101BA000F8016081718180EA99E059DA109243204E
:101BB000D9CF809146208130A9F680913C2088239E
:101BC00089F2F7012081318160914720862F90E0D2
:101BD0002D5F3F4F2817390788F420813181821B00
:101BE000930B8136910518F0F601A68202C0F6012A
:101BF000A582B092452010923C2020C0F701408180
:101C00005181262F30E02D5F3F4F2417350790F488
:101C100020813181A901481B590B4136510518F02B
:101C2000F601A58202C0F601A682B092452010926C
:101C30003C2004C01092452010923C20F8012081E5
:101C4000318160914420862F90E02D5F3F4F28170F
:101C5000390788F420813181821B930B81369105ED
:101C600018F0F601958202C0F6019682B092B42077
:101C700010923C2077CFF80140815181262F30E02F
:101C80002D5F3F4F2417350790F420813181A90142
:101C9000481B590B4136510518F0F601968202C0D7
:101CA000F6019582B092B42010923C205BCF109246
:101CB000B42010923C2056CF6FE480EA99E0CFD94F
:101CC0006BE480EA99E0CBD910924B2008951F92E3
:101CD0000F920FB60F9211240BB60F922F933F93D2
:101CE0004F935F936F937F938F939F93AF93BF9324
:101CF000EF93FF9380EA99E0BAD98F3F19F42EDE73
:101D0000DBDF15C08E3F29F46EEF80EA99E0A7D99A
:101D10000EC0B3DD80914B208F5F80934B208430C9
:101D200030F08091B5208F5F8093B520C5DFFF91A3
:101D3000EF91BF91AF919F918F917F916F915F9143
:101D40004F913F912F910F900BBE0F900FBE0F90B0
:101D50001F9018951F920F920FB60F9211248F9318
:101D60009F9380913A2090913B208436910530F4E6
:101D7000019680933A2090933B2007C081E08093A6
:101D80003C2010923A2010923B209F918F910F900F
:101D90000FBE0F901F901895A1E21A2EAA1BBB1B15
:101DA000FD010DC0AA1FBB1FEE1FFF1FA217B30727
:101DB000E407F50720F0A21BB30BE40BF50B661F3D
:101DC000771F881F991F1A9469F760957095809501
:101DD00090959B01AC01BD01CF010895EE0FFF1F4F
:101DE0000590F491E02D0994A29FB001B39FC0012A
:101DF000A39F700D811D1124911DB29F700D811D37
:101E00001124911D0895689401C0E8948F929F92C7
:101E1000CF93DF9305D0DF91CF919F908F9008955E
:101E200088249924F401E401B0E49F93AA279A1529
:101E30008B049C04ED05FE05CF05D007A10798F49F
:101E4000AD2FDC2FCF2FFE2FE92D982C892E982F28
:101E5000872F762F652F542F432F322F2227B850EC
:101E600031F7BF9127C01B2EBF91BB27220F331F15
:101E7000441F551F661F771F881F991F881C991CB8
:101E8000EE1FFF1FCC1FDD1FAA1FBB1F8A149B0460
:101E9000EC05FD05CE05DF05A007B10748F08A185F
:101EA0009B08EC09FD09CE09DF09A00BB10B2160ED
:101EB0001A94E1F62EF49401AF01BE01CD01000C9D
:101EC00008950F93083090F0982F872F762F652F65
:101ED000542F432F322F22270850F4CF220F331FC5
:101EE000441F551F661F771F881F991F0A95B2F759
:101EF0000F9108952A193B094C095D096E097F0964
:0A1F0000800B910B0895F894FFCFB9
:081F0A0000100E0003000100AD
:00000001FF
